:100000000C9460170C94A0170C94A0170C94A017D4
:100010000C94A0170C94A0170C94A0170C94A01784
:100020000C94A0170C94A0170C94A0170C94A01774
:100030000C94A0170C94A0170C94A0170C94A01764
:100040000C94A0170C94D98A0C94A0170C94A017A8
:100050000C94A0170C946F860C94A0170C94ABE32F
:100060000C94A0170C949C490C9492490C94A017E2
:100070000C94A0170C94A0170C94A0170C94A01724
:100080000C94A0170C94A0170C94A0170C94A01714
:100090000C94A0170C94A0170C94A0170C94A01704
:1000A0000C94A0170C94A0170C94A0170C94A017F4
:1000B0000C94A0170C94A0170C94A0170C94A017E4
:1000C0000C94A0170C94A0170C94A0170C94A017D4
:1000D0000C94A0170C94A0170C94A0170C94A017C4
:1000E0000C94A017084AD73B3BCE016E84BCBFFDE1
:1000F000C12F3D6C74319ABD56833DDA3D00C77FF8
:1001000011BED9E4BB4C3E916BAAAABE0000008090
:100110003F05A84CCDB2D44EB93836A9020C50B91F
:10012000918688083CA6AAAA2ABE000000803F0744
:10013000634236B79BD8A71A39685618AEBAAB5582
:100140008C1D3CB7CC5763BD6DEDFD753EF6177247
:1001500031BF000000803F08000000BE9224491219
:100160003EABAAAA2ABECDCCCC4C3E00000080BE3D
:10017000ABAAAAAA3E00000000BF000000803F001A
:1001800000000000084178D3BB4387D1133D190E0E
:100190003CC3BD4282AD2B3E68EC8276BED98FE176
:1001A000A93E4C80EFFFBE01C4FF7F3F000000006E
:1001B00000004E414E494E495459494E46CDCCCC93
:1001C0003D0AD7233C17B7D13877CC2B329595E62B
:1001D000241FB14F0A000020410000C84200401C0B
:1001E0004620BCBE4CCA1B0E5AAEC59D7400407A58
:1001F00010F35A00A0724E18090010A5D4E80000B0
:10020000E87648170000E40B54020000CA9A3B004D
:100210000000E1F505000080969800000040420FC4
:10022000000000A08601000000102700000000E888
:1002300003000000006400000000000A000000004D
:10024000000100000000002C76D888DC674F0823EE
:10025000DFC1DFAE59E1B1B796E5E3E453C63AE654
:1002600051997696E8E6C28426EB898C9B62ED4034
:100270007C6FFCEFBC9C9F40F2BAA56FA5F4900583
:100280005A2AF75C936B6CF9676DC11BFCE0E40DB7
:1002900047FEF520E6B500D0ED902E0300943577AB
:1002A000050080841E080000204E0A000000C80CD3
:1002B000333333330F986E12831141EF8D2114893C
:1002C0003BE65516CFFEE6DB18D1844B381BF77C96
:1002D0001D901DA4BBE424203284725E228100C9DB
:1002E000F124ECA1E53D27434F4D4D554E49434187
:1002F00054494F4E0044525952554E004552524FA8
:10030000525300494E464F004543484F0053544F07
:10031000505045442E20005072696E7465722073EF
:10032000746F707065642064756520746F206572E9
:10033000726F72732E20466978207468652065722A
:10034000726F7220616E6420757365204D39393982
:1003500020746F20726573746172742E2028546546
:100360006D70657261747572652069732072657352
:1003700065742E20536574206974206166746572FB
:100380002072657374617274696E67290A004E6F1A
:1003900020436865636B73756D2077697468206CA2
:1003A000696E65206E756D6265722C204C61737488
:1003B000204C696E653A20004E6F20436865636B80
:1003C00073756D2077697468206C696E65206E7531
:1003D0006D6265722C204C617374204C696E653AB5
:1003E0002000636865636B73756D206D69736D6163
:1003F0007463682C204C617374204C696E653A20DC
:10040000004C696E65204E756D62657220697320BF
:100410006E6F74204C617374204C696E65204E754C
:100420006D6265722B312C204C617374204C696EA7
:10043000653A20004D3131300053657269616C209E
:10044000737461747573206D69736D617463680A88
:100450000053442072656164206572726F720A00F5
:100460004B494C4C20627574746F6E2F70696E0A24
:10047000002121204B494C4C206361757365642039
:1004800062792000746F6F206D75636820696E61FA
:1004900063746976652074696D65202D20637572BB
:1004A00072656E7420636F6D6D616E643A20002119
:1004B00021204B494C4C206361757365642062793F
:1004C0002000627573793A207061757365642066E7
:1004D0006F7220696E7075740A00627573793A20C4
:1004E00070617573656420666F7220757365720A3A
:1004F00000627573793A2070726F63657373696E09
:10050000670A004D656469612052656D6F766564A8
:10051000004D6564696120496E736572746564009D
:10052000506C656173652052657365740050524963
:100530004E5445522048414C5445440025533A20DE
:100540002553004B494C4C45442E20005072696E97
:100550007465722068616C7465642E206B696C6CC4
:1005600028292063616C6C6564210A006563686FEB
:100570003A004572726F723A004F4646004F4E0085
:1005800042696C696E656172204C6576656C696E56
:100590006720477269643A0A004F46460A0046617E
:1005A0006465204865696768742000426564204C72
:1005B0006576656C696E6720004661696C656420CC
:1005C000746F20656E61626C6520426564204C65C5
:1005D00076656C696E670A00496E76616C696420A5
:1005E0006D6573682E0A0050726F62696E672050E5
:1005F0006F696E740025532025692F2569002E0A26
:10060000002F0050726F62696E67206D65736820FD
:10061000706F696E742000202844525952554E293B
:1006200000473239204175746F20426564204C6563
:1006300076656C696E67003F20284C2C522C462C46
:100640004229206F7574206F6620626F756E647327
:100650002E0A00290A003F466565647261746520B0
:1006600028532920746F6F206C6F772E20285573C4
:10067000696E6720003F2856296572626F73652096
:100680006C6576656C20696D706C61757369626C00
:10069000652028302D34292E0A00426164205A201A
:1006A00076616C75650A004E6F2062696C696E65D3
:1006B000617220677269640A0020440020204D3274
:1006C0003030205300202844697361626C656429CE
:1006D0003A0046696C616D656E7420736574746967
:1006E0006E67730020204D3230312058004D617804
:1006F00020416363656C65726174696F6E20287553
:100700006E6974732F7332290020204D32303320EC
:1007100058004D6178206665656472617465732068
:1007200028756E6974732F73290020520020204DA4
:10073000323034205000416363656C6572617469C6
:100740006F6E2028756E6974732F733229202850BC
:100750003C7072696E742D616363656C3E20523C1F
:10076000726574726163742D616363656C3E2054BD
:100770003C74726176656C2D616363656C3E290023
:10078000204A0020540020530020204D32303520D4
:100790004200416476616E6365642028423C6D6965
:1007A0006E5F7365676D656E745F74696D655F75A7
:1007B000733E20533C6D696E5F666565647261745B
:1007C000653E20543C6D696E5F74726176656C5F46
:1007D00066656564726174653E204A3C6A756E6345
:1007E0005F6465763E290020440020490020204DAA
:1007F000333031205000486F74656E642050494496
:100800000020440020490020204D33303420500087
:100810004265642050494400536C6565702E2E2E4D
:10082000005A2050726F62652050617374204265D7
:10083000640A005A2050726F626520506173742000
:10084000426564005A2050726F6265205061737473
:100850002042656400205A3A0020593A00426564FB
:1008600020583A004D65736820706F696E74206F70
:100870007574206F662072616E67650A00436C694B
:10088000636B20746F20526573756D652E2E2E007C
:100890004E6F204D6F76652E00456E642066696C44
:1008A00065206C6973740A00426567696E20666929
:1008B0006C65206C6973740A004E6F206D65646905
:1008C000610A00286E6F2066696C652900437572A5
:1008D00072656E742066696C653A20004E6F7420F4
:1008E0005344207072696E74696E670A0053442025
:1008F0007072696E74696E67206279746520002E6B
:100900000A0044656C6574696F6E206661696C6588
:10091000642C2046696C653A200046696C65206449
:10092000656C657465643A002569730025696D20FE
:10093000256973002569682025696D202569730084
:10094000256964202569682025696D202569730063
:1009500025697920256964202569682025696D202D
:10096000256973005072696E742074696D653A2050
:10097000006F6B004C696E653A20006F6666000878
:10098000030303FC02F502E70244454255473A00DF
:100990004D3131322053687574646F776E004D317C
:1009A0003133205300416E79637562696320693386
:1009B000204F46462E0020732E0A00496E61637454
:1009C00069766974792074696D656F757420004368
:1009D0004F4E4649475F4558504F5254004D454190
:1009E000545041434B00434F4F4C45525F54454D8B
:1009F0005045524154555245004348414D4245529D
:100A00005F54454D50455241545552450045505F45
:100A10004241425953544550004241425953544572
:100A20005050494E470041524353004D4F54494F97
:100A30004E5F4D4F44455300544845524D414C5F25
:100A400050524F54454354494F4E00455854454E1B
:100A50004445445F4D323000435553544F4D5F463B
:100A600049524D574152455F55504C4F4144004CFF
:100A7000464E5F5752495445004C4F4E475F4649DA
:100A80004C454E414D45004155544F5245504F52F3
:100A9000545F53445F5354415455530053445F577C
:100AA0005249544500524550454154004D554C540F
:100AB000495F564F4C554D45005344434152440005
:100AC00050524F4D50545F535550504F5254004860
:100AD0004F53545F414354494F4E5F434F4D4D4137
:100AE0004E445300454D455247454E43595F504192
:100AF0005253455200434153455F4C494748545F68
:100B00004252494748544E45535300544F47474C6F
:100B1000455F4C494748545300534F465457415240
:100B2000455F504F574552004255494C445F504530
:100B30005243454E54004C4556454C494E475F4440
:100B4000415441005A5F50524F42450052554E4F5A
:100B50005554004155544F4C4556454C0050524950
:100B60004E545F4A4F420050524F47524553530034
:100B70004155544F5245504F52545F54454D5000CB
:100B80004155544F5245504F52545F504F530056A9
:100B90004F4C554D455452494300454550524F4DD9
:100BA0000042494E4152595F46494C455F545241BB
:100BB0004E534645520053455249414C5F584F4EA3
:100BC0005F584F4646004649524D574152455F4E89
:100BD000414D453A4D61726C696E20627567666978
:100BE000782D322E312E7820284170722020352029
:100BF000323032352030303A31383A3435292053CA
:100C00004F555243455F434F44455F55524C3A67F9
:100C100069746875622E636F6D2F4D61726C696EB9
:100C20004669726D776172652F4D61726C696E20D5
:100C300050524F544F434F4C5F56455253494F4EBD
:100C40003A312E30204D414348494E455F5459506A
:100C5000453A416E796375626963206933204B4977
:100C60004E454D41544943533A436172746573692B
:100C7000616E2045585452554445525F434F554E7E
:100C8000543A3120555549443A63656465326132BE
:100C9000662D343161322D343734382D396231329A
:100CA0002D633535633632663336376666002F2F4F
:100CB000004D31343520533C696E6465783E206FB9
:100CC0007574206F662072616E67652028302D3143
:100CD000290A003F4A206F7574206F662072616E8A
:100CE00067652028302E303120746F20302E332954
:100CF0000A002058003B200020204D61783A200057
:100D0000200020204D696E3A2000203B200020204A
:100D10004D323131205300250A0046523A00204618
:100D20006C6F773A200064697300656E0043290098
:100D300061626C656420286D696E2074656D702039
:100D400000436F6C6420657874727564657320610C
:100D5000726520004D34323120696E636F727265A6
:100D6000637420706172616D657465722075736162
:100D700067650A004D65736820706F696E74206F37
:100D80007574206F662072616E67650A004F666633
:100D900073657473204170706C696564004D494ED1
:100DA0002F4D415820546F6F2046617200546F6F71
:100DB000206661722066726F6D204D494E2F4D4145
:100DC000580A00454550524F4D204F4B0A00290A02
:100DD0000020746F20003F5A206F7574206F6620CA
:100DE00072616E6765202800290A0020746F200058
:100DF0003F59206F7574206F662072616E676520A1
:100E00002800290A0020746F20003F58206F757455
:100E1000206F662072616E67652028004D383400AF
:100E2000446F6E65207072696E74696E67206669C2
:100E30006C650A004D3737004D33310020204D32AC
:100E40003036205800486F6D65206F666673657494
:100E5000004361703A0047322F47332062616420BB
:100E6000706172616D65746572730A00203B0020C9
:100E7000204D3835312058005A2D50726F62652050
:100E80004F66667365740020573A00436F6F6C6954
:100E90006E672E2E2E0045312025530020573A0034
:100EA00042656420436F6F6C696E672E2E2E004280
:100EB00065642048656174696E672E2E2E00236478
:100EC0006566696E652044454641554C545F006235
:100ED0006564004B6420004B6920004B70200020AB
:100EE00066696E6973686564212050757420746842
:100EF00065206C617374204B702C204B6920616EEF
:100F000064204B6420636F6E7374616E747320662B
:100F1000726F6D2062656C6F7720696E746F20430D
:100F20006F6E66696775726174696F6E2E680A000C
:100F3000504944204175746F74756E650020666178
:100F4000696C6564212074696D656F75740A005061
:100F50004944204175746F74756E6500206661693F
:100F60006C6564212054656D70657261747572657D
:100F700020746F6F20686967680A005049442041F7
:100F800075746F74756E6500504944204379636CC5
:100F900065730025532025692F256900204B643A8D
:100FA0002000204B693A2000204B703A200020435B
:100FB0006C617373696320504944200A00204E6FAE
:100FC000206F76657273686F6F740A002054753AEB
:100FD0002000204B753A2000206D61783A200020D7
:100FE0006D696E3A200020643A20002062696173C6
:100FF0003A200048656174696E672E2E2E002073BA
:10100000746172740A00504944204175746F74759C
:101010006E6500206661696C6564212054656D70A1
:101020006572617475726520746F6F206869676896
:101030000A00504944204175746F74756E65005004
:101040004944204175746F74756E6500206661694E
:101050006C6564212042616420686561746572205A
:1010600069640A00504944204175746F74756E6557
:1010700000A10000006900A20000006300B00000B1
:10108000000900C10000004100C20000004100C38F
:101090000000004100C40000004100C50000004104
:1010A00000C60000004145C70000004300C8000022
:1010B000004500C90000004500CD0000004900D1F6
:1010C0000000004E00D50000004F00D60000004F89
:1010D00000D70000007800DC0000005500DD0000B3
:1010E000005900E00000006100E10000006100E242
:1010F0000000006100E30000006100E40000006106
:1011000000E50000006100E60000006165E7000006
:10111000006300E80000006500E90000006500EAE7
:101120000000006500EB0000006500EC00000069B5
:1011300000ED0000006900EE0000006900EF000013
:10114000006900F10000006E00F20000006F00F383
:101150000000006F00F40000006F00F50000006F59
:1011600000F60000006F00F80000006F00F90000BA
:10117000007500FA0000007500FB0000007500FC1F
:101180000000007500FD0000007900FF00000079FC
:10119000000401000041000501000061000601009B
:1011A0000043000701000063000C01000043000D34
:1011B00001000063000E01000044000F0100006404
:1011C000001101000064001901000065001A01000F
:1011D0000045001B01000065001F01000067003092
:1011E0000100004900310100006900410100004C8C
:1011F00000420100006C00430100004E0044010069
:10120000006E00480100006E0058010000520059B5
:1012100001000072005A01000053005B01000073DE
:10122000005F0100007300600100005300610100D5
:101230000073006501000074006F01000075007C00
:101240000100007A007D0100005A007E0100007A52
:1012500000920100006600E30200007800222000F6
:10126000002E001E210000507822210000544D90D5
:101270002100003C2D922100002D3EB021000003F2
:1012800000BB21000004003C2200007E0048220038
:10129000007E3D60220000213D612200003D00648F
:1012A0002200003C3D652200003E3DF12300000786
:1012B00000A03000003D0021F301000200C2F40153
:1012C000000500A2000000EC00B0000000DF00E418
:1012D000000000E100F6000000EF00F7000000FD54
:1012E00000FC000000F500E3020000EB00870300B3
:1012F00000A5008F030000F40098030000F2009E98
:10130000030000E300A3030000F600A9030000F4BB
:1013100000AC030000E000AD030000E300B10300F7
:1013200000E000B2030000E200B5030000E300B8F3
:10133000030000F200BC030000E400BE030000E371
:1013400000C0030000F700C1030000E600C3030073
:1013500000E500902100007F00922100007E001A2D
:10136000220000E8001E220000F30088250000FF94
:101370000002300000A1000C300000A2000D30007F
:1013800000A3009B300000DE009C300000DF00A0C6
:101390003000003D00A1300000A700A2300000B1E5
:1013A00000A3300000A800A4300000B200A5300067
:1013B00000A900A6300000B300A7300000AA00A8D2
:1013C000300000B400A9300000AB00AA300000B526
:1013D00000AB300000B600AC300000B6DEAD30002F
:1013E00000B700AE300000B7DEAF300000B800B08C
:1013F000300000B8DEB1300000B900B2300000B9F2
:10140000DEB3300000BA00B4300000BADEB5300000
:1014100000BB00B6300000BBDEB7300000BC00B837
:10142000300000BCDEB9300000BD00BA300000BDA5
:10143000DEBB300000BE00BC300000BEDEBD3000B0
:1014400000BF00BE300000BFDEBF300000C000C0E3
:10145000300000C0DEC1300000C100C2300000C159
:10146000DEC3300000AF00C4300000C200C5300051
:1014700000C2DEC6300000C300C7300000C3DEC8B3
:10148000300000C400C9300000C4DECA300000C50E
:1014900000CB300000C600CC300000C700CD3000CB
:1014A00000C800CE300000C900CF300000CA00D014
:1014B000300000CADED1300000CADFD2300000CBDD
:1014C00000D3300000CBDED4300000CBDFD53000BD
:1014D00000CC00D6300000CCDED7300000CCDFD806
:1014E000300000CD00D9300000CDDEDA300000CD74
:1014F000DFDB300000CE00DC300000CEDEDD30006F
:1015000000CEDFDE300000CF00DF300000D000E092
:10151000300000D100E1300000D200E2300000D302
:1015200000E3300000AC00E4300000D400E53000FF
:1015300000AD00E6300000D500E7300000AE00E866
:10154000300000D600E9300000D700EA300000D8B3
:1015500000EB300000D900EC300000DA00ED300084
:1015600000DB00EF300000DC00F2300000A600F3EA
:10157000300000DD00F4300000B3DEF7300000DCA6
:10158000DEFA300000A6DEFB300000A500FC3000D3
:1015900000B000FD300000A400074E0000FB0086F4
:1015A000510000FC0043530000FA0064FF0000A457
:1015B0000065FF0000A50066FF0000A60067FF00B1
:1015C00000A70068FF0000A80069FF0000A9006AEA
:1015D000FF0000AA006BFF0000AB006CFF0000AC36
:1015E000006DFF0000AD006EFF0000AE006FFF0059
:1015F00000AF0070FF0000B00071FF0000B100728A
:10160000FF0000B20073FF0000B30074FF0000B4DD
:101610000075FF0000B50076FF0000B60077FF0000
:1016200000B70078FF0000B80079FF0000B9007A29
:10163000FF0000BA007BFF0000BB007CFF0000BC85
:10164000007DFF0000BD007EFF0000BE007FFF00A8
:1016500000BF0080FF0000C00081FF0000C10082C9
:10166000FF0000C20083FF0000C30084FF0000C42D
:101670000085FF0000C50086FF0000C60087FF0050
:1016800000C70088FF0000C80089FF0000C9008A69
:10169000FF0000CA008BFF0000CB008CFF0000CCD5
:1016A000008DFF0000CD008EFF0000CE008FFF00F8
:1016B00000CF0090FF0000D00091FF0000D1009209
:1016C000FF0000D20093FF0000D30094FF0000D47D
:1016D0000095FF0000D50096FF0000D60097FF00A0
:1016E00000D70098FF0000D80099FF0000D9009AA9
:1016F000FF0000DA009BFF0000DB009CFF0000DC25
:10170000009DFF0000DD009EFF0000DE009FFF0047
:1017100000DF00E5FF00005C0000000000010204A3
:10172000040000001C1C0C04040402010000000062
:1017300000040810000000000003002D2D2D2D2DA9
:101740002D007C4D61726C696E7C0001002D2D2D89
:101750002D2D2D002500503A002568753A25303290
:1017600068750025303268753A2530326875002575
:101770003032687527253032687500200020003A25
:10178000002000200020003A003A00001C1F111128
:101790001F00000006191803130C00040E1F041C80
:1017A000000000000E1315110E00001C1018170584
:1017B000060500040A0A0A0A11110E0C12120C0086
:1017C000000000001F1511151F000020002500203B
:1017D0002020202020200020002020202000200089
:1017E00020002F006572720042656400456E636CD4
:1017F0006F73757265005072696E742041626F720A
:10180000746564004D32350050617573696E672EE2
:101810002E2E004D3234003F0049676E6F72650016
:10182000526573657400496E697469616C697A65A3
:1018300020454550524F4D0046696C2E2044696149
:101840002E004F6666004F6E004520696E206D6D5C
:101850005E330020022046616374002002204D6147
:1018600078002002204D696E004D696E205472612F
:1018700076656C205370656564004D696E20566511
:101880006C6F63697479004D6178204020537065F6
:101890006564004D6178204520416363656C004DAF
:1018A0006178204020416363656C00547261766505
:1018B0006C20416363656C005265747261637420CF
:1018C000416363656C00416363656C004020737421
:1018D0006570732F6D6D00416476616E6365642081
:1018E00053657474696E6773003F0043616E63658E
:1018F0006C00496E6974004D34323800496E697469
:1019000069616C697A6520454550524F4D004669C2
:101910006C616D656E740054656D7065726174758F
:1019200072650053746570732F6D6D004A756E6338
:1019300074696F6E2044657600416363656C6572FF
:101940006174696F6E004D61782053706565642025
:10195000286D6D2F73290053657420486F6D6520C5
:101960004F66667365747300436F6E666967757260
:101970006174696F6E0041425300504C41004572E2
:10198000723A20454550524F4D20436F7272757028
:1019900074004572723A20454550524F4D204352D3
:1019A00043004572723A20454550524F4D205369CD
:1019B0007A65004572723A20454550524F4D205687
:1019C000657273696F6E00426564004E6F7A7A6C5F
:1019D000650046616E20537065656400436F6E66F6
:1019E000696775726174696F6E00526573746F72A6
:1019F000652044656661756C7473004C6F6164208A
:101A000053657474696E67730053746F7265205305
:101A1000657474696E6773005072656865617420DF
:101A20002420436F6E66696700416476616E63656A
:101A3000642053657474696E6773004D61696E202C
:101A40004D656E75003F004261636B0053746F70AB
:101A5000004E6F204D656469610053656C65637469
:101A60002066726F6D204D65646961004368616E28
:101A70006765204D65646961004D323100436F6ECA
:101A800066696775726174696F6E0054656D706523
:101A90007261747572650050726F626520616E6468
:101AA000204C6576656C004D6F74696F6E005265F1
:101AB00073756D65205072696E740054756E6500A3
:101AC00053746F70205072696E7400506175736545
:101AD000205072696E7400496E666F2053637265A0
:101AE000656E003F005374617274205072696E74A9
:101AF0000043616E63656C005072696E74004361EF
:101B00006E6E6F7420656E746572207375626469A1
:101B1000723A200005202E2E004D61696E204D6521
:101B20006E75002100486F74656E6420746F6F20BD
:101B3000636F6C64004261636B0050726F63656534
:101B400064004D6F76652045787472756465720027
:101B50004D6F74696F6E0044697361626C652053E8
:101B600074657070657273004D3834004175746F20
:101B700020486F6D65004D61696E204D656E750082
:101B800053746F72652053657474696E6773005A7D
:101B90002050726F62652057697A617264005072DA
:101BA0006F62652040204F66667365740053746FE2
:101BB00077205A2D50726F6265004D3430320044E8
:101BC00065706C6F79205A2D50726F6265004D34CC
:101BD0003031004661646520486569676874004C6F
:101BE0006576656C20426564004732394E004732A5
:101BF00039004F6666004F6E00426564204C657682
:101C0000656C696E67004175746F20486F6D650083
:101C10004D61696E204D656E750043616E63656C44
:101C200000446F6E6500302E30323500302E3100AA
:101C30004D6F766520246D6D00312E300050726F2F
:101C400062652040204F6666736574005A004D6FD0
:101C50007665204E6F7A7A6C6520746F20426564D9
:101C6000004D6F76696E6720746F2050726F6269E5
:101C70006E6720506F7300486F6D696E672058590A
:101C80005A0047323800507265686561742024201C
:101C90004265640050726568656174202420456E59
:101CA000640054656D7065726174757265007A19AF
:101CB0007619436F6F6C646F776E0050726568655C
:101CC000617420240046616E205370656564004293
:101CD0006564004E6F7A7A6C65004D61696E204DC7
:101CE000656E7500466C6F770046616E20537065B7
:101CF000656400426564004E6F7A7A6C65005370CB
:101D0000656564004D61696E204D656E75006F708C
:101D1000656E00545249474745524544003A2000F9
:101D20007A5F6D696E00795F6D696E00785F6D69CD
:101D30006E005265706F7274696E6720656E6473B1
:101D4000746F70207374617475730A0020746F6F00
:101D5000206C6F6E6720657874727573696F6E2082
:101D600070726576656E7465640A0020636F6C64DA
:101D700020657874727573696F6E20707265766510
:101D80006E7465640A00486F6D652025732046698E
:101D900072737400000000000000000000000000EA
:101DA0005761726E696E673A20486F6D696E672081
:101DB00042756D702044697669736F72203C2031E2
:101DC0000A000202040000A0400000A04000000041
:101DD00040000052430000524300007A43000000DC
:101DE00000000000000000000053657474696E6715
:101DF000732053746F72656400290A00206279743D
:101E000065733B20637263200053657474696E6769
:101E1000732053746F726564202800204D61726CCA
:101E2000696E3D563930290A00454550524F4D20C4
:101E300076657273696F6E206D69736D6174636826
:101E40002028454550524F4D3D00454550524F4D7D
:101E5000206461746173697A65206572726F722E95
:101E60000A00202863616C63756C617465642921C4
:101E70000A0020213D2000454550524F4D2043523D
:101E800043206D69736D61746368202D202873741D
:101E90006F726564292000454550524F4D20436FB5
:101EA00072727570740A002053697A653A2000498D
:101EB0006E6465783A20002062797465733B206314
:101EC000726320002073746F72656420736574748C
:101ED000696E67732072657472696576656420281F
:101EE0000048617264636F6465642044656661756F
:101EF0006C742053657474696E6773204C6F6164F1
:101F00006564000000FA430000FA430000C040008E
:101F100000C8410000A0420000A0420000C8436683
:101F200066C042DC050000DC050000320000004015
:101F30001F000020286D6D2900203B204C65766530
:101F40006C696E67200020204D34323020530041F0
:101F500075746F20426564204C6576656C696E67A8
:101F60000020460020420020480020204D3134351A
:101F70002053004D6174657269616C2068656174FD
:101F8000757020706172616D657465727300204AAE
:101F9000002020473239205720490020204D31347D
:101FA000392043203B20556E69747320696E2043AD
:101FB000656C736975730A0054656D706572617440
:101FC00075726520556E6974730020204732312088
:101FD0003B004C696E65617220556E697473002414
:101FE000F4D43050C38D20C3A24117828B701112DC
:101FF0007A900D826CDA0AA861E108C75866076119
:102000005142061F4B5E05C145A6041B411204093F
:102010003D9703723931034136DB0266339202D4B5
:10202000305302812E1D02642CEE01762AC501B1C7
:1020300028A101102781018F2564012B244A01E189
:10204000223401AD2120018D200C01811FFC00856F
:102050001EED00981DDF00B91CD200E71BC7002051
:102060001BBB00651AB200B319A9000A19A0006AC7
:10207000189800D217920040178A00B616840032D2
:10208000167E00B41579003B157400C7146F005814
:10209000146A00EE1366008813620026135E00C8FF
:1020A000125B006D12570016125500C111510070DD
:1020B000114E0022114C00D61049008D10460047E9
:1020C00010450002104200C00F4000800F3E004249
:1020D0000F3C00060F3A00CC0E3900930E37005C1F
:1020E0000E3500270E3400F30D3200C10D31009083
:1020F0000D2F00610D2F00320D2D00050D2C00D984
:102100000C2A00AF0C2A00850C28005D0C28003535
:102110000C27000E0C2500E90B2500C40B2400A0A1
:102120000B23007D0B22005B0B21003A0B210019D1
:102130000B2000F90A1F00DA0A1F00BB0A1E009DCF
:102140000A1D00800A1C00640A1C00480A1C002C9E
:102150000A1B00110A1A00F7091A00DD091900C448
:10216000091900AB091800930918007B09170064CE
:102170000917004D09170036091600200915000B34
:10218000091500F6081500E1081500CC081400B880
:10219000081400A4081300910813007E0813006BB4
:1021A00008120059081200470812003508120023CF
:1021B0000811001208110001081000F1071100E0D9
:1021C000071000D0071000C0070F00B1071000A1D2
:1021D000070F0092070F0083070F0074070E0066B9
:1021E000070E0058070E004A070E003C070E002E8F
:1021F000070D0021070D0014070D0007070D00FA59
:10220000060D00ED060C00E1060D00D4060C00C81A
:10221000060C00BC060C00B0060B00A5060C0099CD
:10222000060B008E060B0083060B0078060B006D74
:10223000060B0062060B0057060A004D060A004313
:10224000060B0038060A002E060A00240609001BA9
:10225000060A0011060A0007060900FE050A00F436
:10226000050900EB050900E2050900D9050900D0C0
:10227000050900C7050800BF050900B6050900AD3E
:10228000050800A50508009D050800950509008CB6
:10229000050800840508007C050700750508006D29
:1022A000050800650507005E050800560507004F94
:1022B00005080047050700400507003905070032FB
:1022C0000507002B050700240507001D050700165C
:1022D0000507000F0506000905070002050600FCBA
:1022E000040700F5040600EF040700E8040600E216
:1022F000040600DC040600D6040600D0040700C96A
:10230000040500C4040600BE040600B8040600B2BA
:10231000040600AC040600A6040500A10406009B08
:1023200004050096040600900405008B0406008551
:10233000040500800405007B040500760406007097
:102340000405006B04050066040500610405005CDB
:1023500004050057040500520405004D040500481B
:10236000040400440405003F0405003A0404003658
:10237000040500310405002C040400280405002392
:102380000404001F0405001A0404001604040012CB
:102390000405000D04040009040400050404000100
:1023A000040500FC030400F8030400F4030400F037
:1023B000030400EC030400E8030400E4030400E069
:1023C000030400DC030400D8030400D4030300D199
:1023D000030400CD030400C9030400C50304000086
:1023E00000000000000000000000000000000000ED
:1023F00000000000000000D1036D6403570D034787
:10240000C6023B8B023259022B2E0225090221E81B
:10241000011CCC011AB201179B011487011374012E
:102420001163010F54010E46010D39010D2C010BF2
:1024300021010A17010A0D0109040108FC0008F432
:102440000007ED0007E60007DF0006D90006D3000D
:1024500005CE0006C80005C30004BF0005BA00048D
:10246000B60004B20004AE0004AA0004A60003A350
:1024700000049F00039C000399000396000393004F
:10248000029100038E00028C000389000287000382
:102490008400028200028000027E00027C00027A38
:1024A00000027800027600017500027300027100DC
:1024B000017000026E00016D00026B00016A0002F3
:1024C00068000167000265000164000163000162A9
:1024D00000026000015F00015E00015D00015C0020
:1024E000015B00015A000159000158000157000129
:1024F00056000155000154000153000152000151E2
:1025000000005100015000014F00014E00014D003C
:10251000004D00014C00014B00014A00004A00013F
:1025200049000148000048000147000146000046FC
:102530000001450000450001440001430000430044
:102540000142000042000141000041000140000042
:102550004000013F00003F00013E00003E00013D01
:1025600000003D00013C00003C00013B00003B003E
:10257000013A00003A000139000039000039000139
:1025800038000038000137000037000037000136FE
:10259000000036000036000135000035000134002F
:1025A0000034000034000133000033000033000128
:1025B00032000032000032000131000031000031F1
:1025C00000003100013000003000003000012F0019
:1025D000002F00002F00002F00012E00002E000011
:1025E0002E00012D00002D00002D00002D00012CDB
:1025F00000002C00002C00002C00012B00002B0000
:10260000002B00002B00012A00002A00002A0000F5
:102610002A00002A000129000029000029000029C1
:1026200000012800002800002800002800002800E1
:1026300001270000270000270000270000270001D5
:1026400026000026000026000026000026000026A6
:1026500000012500002500002500002500002500C0
:1026600000250001240000240000240000240000B4
:102670002400002400012300002300002300002385
:10268000000023000023000122000022000022009D
:102690000022000022000022000022000121000090
:1026A0002100002100002100002100002100002164
:1026B0000001200000200000200000200000200079
:1026C000002000002000002000011F00001F00006B
:1026D0001F00001F00001F00001F00001F0000203F
:1026E000436F756E7420583A0000426564004531AE
:1026F00000626564002C2073797374656D207374B7
:102700006F7070656421204865617465725F49442B
:102710003A20004572723A204D415854454D5000C0
:102720004D415854454D5020747269676765726514
:10273000640048656174696E67204661696C656410
:102740000048656174696E67206661696C65640044
:102750004572723A204D494E54454D50004D494EF8
:1027600054454D5020747269676765726564005402
:102770004845524D414C2052554E41574159005405
:102780006865726D616C2052756E617761790020A9
:102790002F002042403A0020403A007C3C3E5E2B15
:1027A0003D3F2F5B5D3B2C2A225C005761726E69B6
:1027B0006E673A004D6564696120496E6974204610
:1027C00061696C0053442063617264206F6B0A007E
:1027D0006F70656E526F6F74206661696C65640A14
:1027E00000766F6C756D652E696E6974206661691F
:1027F0006C65640A004E6F20534420636172640A62
:1028000000534420636172642072656C6561736576
:10281000640A000A4D3234004D3233202573002EF5
:102820000A006F70656E206661696C65642C2046D5
:10283000696C653A200046696C652073656C656358
:102840007465640A002053697A653A200046696C11
:1028500065206F70656E65643A2000454E442053D4
:102860005542524F5554494E450A002220706F730D
:10287000002220706172656E743A220053554252F4
:102880004F5554494E452043414C4C20746172676A
:1028900065743A220053756263616C6C204F7665F3
:1028A00072666C6F77004578636565646564206D5A
:1028B000617820535542524F5554494E4520646526
:1028C0007074683A0057726974696E6720746F207B
:1028D00066696C653A2000667265736800646F69AA
:1028E0006E67002066696C653A20004E6F772000A5
:1028F0002F6175746F25632E67006D61726C696E50
:1029000066772E6F7267006D61726C696E66772EE6
:102910006F7267006275676669782D322E312E7886
:10292000006275676669782D322E312E7800006D51
:1029300061726C696E66772E6F7267006D61726C82
:10294000696E66772E6F72670020627567666978B8
:102950002D322E312E78002001400130013B014004
:102960000136016001310170012C0190012701B095
:10297000012201C0011D01F00118011002130130F4
:10298000020E016002090190020401C002FF000072
:1029900003FA004003F5008003F000D003EB0020B1
:1029A00004E6007004E100E004DC004005D700C04C
:1029B00005D2004006CD00D006C8008007C3003015
:1029C00008BE00F008B900C009B400B00AAF00B0FA
:1029D0000BAA00D00CA500000EA000500F9B00C059
:1029E0001096005012910000148C00C0158700B0A2
:1029F000178200B0197D00D01B7800001E730040C4
:102A0000206E0090226900F024640040275F00904F
:102A1000295A00E02B5500102E500020304B00109A
:102A2000324600E033410090353C001037370070EB
:102A3000383200A0392D00B03A2800A03B230060B6
:102A40003C1E00103D1900903D1400103E0F007018
:102A50003E0A00C03E0500003F0000403FFBFF80F3
:102A60003FF6FFC03FF1FF2020506C616E6E657233
:102A700042756666657242797465733A2000204635
:102A8000726565204D656D6F72793A200020436F45
:102A90006D70696C65643A20417072202035203277
:102AA0003032350A00204C617374205570646174B3
:102AB00065643A20323032352D30332D3331207C6D
:102AC00020417574686F723A2028426F2048657201
:102AD000726D616E6E73656E290A004D61726C696C
:102AE0006E206275676669782D322E312E780A0065
:102AF00020536F6674776172652052657365740A3E
:102B000000205761746368646F6720526573657451
:102B10000A002042726F776E206F757420526573C1
:102B200065740A002045787465726E616C20526588
:102B30007365740A00506F77657255700A0073747C
:102B40006172740A004732385859004D31303031C3
:102B5000006F6B006572726F722077726974696EB4
:102B60006720746F2066696C650A00446F6E65208B
:102B7000736176696E672066696C652E0A004D3256
:102B80003900456E6473746F70730025532025639C
:102B900020256320256320256300205A3A00205910
:102BA0003A0020583A00656E6473746F7073206841
:102BB00069743A200000000A0B02090C0D0E080788
:102BC00003040100000000000000000000000000FD
:102BD00000000000000000000000000000000000F5
:102BE00000121110000000000000000000000000B2
:102BF0000000000000000000000000302E303235E0
:102C000000302E3100312E30004D6F766520246D5E
:102C10006D00313000000052430000524300007A42
:102C2000434D6F76652041786973004D6F7665205E
:102C30002A004D6F766520400053656C65637420F3
:102C400066726F6D204D656469610020000000228E
:102C500000250028002B002E003100340002010066
:102C600000050108010B0100002100240027002AB3
:102C7000002D003000330001010000040107010AAB
:102C80000105050505070508080808020202020AF1
:102C90000A080804040404010101010101010103FF
:102CA00003030303030303040707070C0C0C0C0CBA
:102CB0000C0C0C0202020206060606060606060BAD
:102CC0000B0B0B0B0B0B0B01021020200808102024
:102CD00040102040800201020108040201010204A8
:102CE0000810204080804020100804020180040267
:102CF00001804020100804020108040201010204BE
:102D0000081020408001020408102040802000208C
:102D1000002000486F6D696E67204661696C6564CC
:102D200000FFFFFF205A3A200020593A2000426558
:102D30006420583A200050726F62696E67204661C5
:102D4000696C65640A0050726F62696E6720466143
:102D5000696C65640043616E6E6F74206F70656EA0
:102D6000207375626469722000220A00556E6B6ED2
:102D70006F776E20636F6D6D616E643A2022002064
:102D80004500205A0020590020204D39322058009B
:102D900053746570732070657220756E697400DB02
:102DA0000FC93F45BCDA3F8FB30240FCF0274056C5
:102DB000946140FE4B9B4084A5D840E023184134E9
:102DC0006A5641E859974164DBD5416E271742B4F2
:102DD000B75542CE1A9742C8AED542B5885A43D4A9
:102DE0000684BFA65FA7BF7443E0BF10B11AC01C22
:102DF0002C58C0E8F697C0B849D6C04E4E17C1242B
:102E0000D355C1802497C1A0B5D5C1121A17C244A9
:102E1000AE55C2781797C26CACD5C267885AC3202A
:102E2000746F6F206C6F6E6720657874727573694C
:102E30006F6E2070726576656E7465640A0020633B
:102E40006F6C6420657874727573696F6E20707230
:102E50006576656E7465640A006F6B0A005265736F
:102E6000656E643A200020453A00205A3A00205905
:102E70003A00583A004572726F722077726974692D
:102E80006E6720746F20454550524F4D210A004116
:102E90006E79637562696320693320526561647974
:102EA0002E005072696E74696E672E2E2E0050725D
:102EB000696E7420506175736564000043F316FDFC
:102EC00011241FBECFEFD1E2DEBFCDBF00E00CBFAB
:102ED00084B78093051414BE0FB6F894A89580911A
:102EE0006000886180936000109260000FBE13E064
:102EF000A0E0B2E0E8E0FBE102E00BBF02C0079017
:102F00000D92A439B107D9F724E1A4E9B3E001C0D7
:102F10001D92A530B207E1F717E1CFE5D7E100E058
:102F200006C021970109802FFE010F94B908CE3504
:102F3000D10780E00807A9F70E94F7F40D94730DFC
:102F40000C940000CF93DF93EC01CB01BA010F94F6
:102F50000A0220E030E048EC52E40F94C2092FE668
:102F600032E143E85AE30F94E608688379838A8361
:102F70009B83DF91CF910895CF93DF93EC01CB0139
:102F8000BA010F940A0220E030E048EC52E40F94BA
:102F9000C2092FE632E143E85AE30F94E60868835A
:102FA00079838A839B83DF91CF910895CF93DF93B9
:102FB000EC01CB01BA010F9408022AE037ED43E29D
:102FC0005DE30F94C2090F942F0A688379838A8383
:102FD0009B83DF91CF910895CF93DF93EC01CB01D9
:102FE000BA010F940A022AE037ED43E25DE30F9441
:102FF000C209688379838A839B83DF91CF91089587
:10300000CF93DF93EC01CB01BA010F940A026883DE
:1030100079838A839B83DF91CF910895FC0151834B
:1030200040830895CF93DF93EC01CB01BA010F9455
:103030000A0220E030E04AE754E40F94C20927E195
:1030400037EB41ED58E30F94E608688379838A8370
:103050009B83DF91CF910895CF93DF93C091180C9C
:10306000D091190C81E0CE31D105E4F020E030E0C0
:1030700040E05FE36091140C7091150C8091160C88
:103080009091170C0F94E6080F942A0A6C1B7D0B85
:1030900077FF03C071956195710981E06330710517
:1030A0000CF080E0DF91CF910895CF93DF93DB01A7
:1030B000F9019C919130C1F0943080F094509C9330
:1030C0008830D1F480819181009771F001979183CC
:1030D0008083480F591FEA01188206C08C3539F4E5
:1030E0009C5F9C93943041F4DF91CF9108958B3392
:1030F00039F781E08C93F8CF20813181B9016F5F7E
:103100007F4F71836083420F531FEA018883808160
:1031100091818F3591056CF7E7CF0F931F9381E075
:10312000009128131091291320912A1330912B1309
:103130004091241350912513609126137091271309
:10314000041715072607370708F480E01F910F9131
:10315000089590E080E0089520911212833021F4C8
:1031600025FD0CC024FD0CC030E0A90102C055951E
:1031700047958A95E2F7CA018170089581E0089524
:1031800080E0089580910B0484FD0BC080910D04B4
:1031900087FD07C090910E04937081E019F480E0E0
:1031A000089581E008952FEB280F2A3108F047C0D9
:1031B000E22FF0E080910B0490910C04A0910D049B
:1031C000B0910E0404C0B695A795979587952A955A
:1031D000D2F780FD02C081700895EF50FC4FE0816E
:1031E000EE2341F180916E0690916F06E80FF92F62
:1031F000F11D808190ED980F9A3030F08E3251F4AD
:10320000818180538A3098F4F093E603E093E503DC
:1032100081E008958D3211F08B3249F4818190ED77
:10322000980F9A3088F38E3211F48281EACFF0E061
:10323000E0E0EACF1092E6031092E503E9CF80E0E8
:103240000895B1DF882341F081E02091E5033091BA
:10325000E603232B09F480E00895CF93DF9300D099
:103260001F92CDB7DEB70F94080269837A838B83F0
:103270009C83CE0101960E94CEAA0F900F900F90D2
:103280000F90DF91CF9108950F9408022AE037ED57
:1032900043E25DE30F94C2090F942F0ADECFCF9271
:1032A000DF92EF92FF92CF93DF9300D01F92CDB7C2
:1032B000DEB76B017C0120E030E0A9010F9404022D
:1032C00087FD1BC06DEB77E386E095E3A7019601D0
:1032D0000F94E60869837A838B839C83CE010196E1
:1032E0000E94CEAA0F900F900F900F90DF91CF9178
:1032F000FF90EF90DF90CF9008956DEB77E386E03D
:1033000095EBE4CF0F940A022AE037ED43E25DE348
:103310000F94C209C4CF0F940A02C1CF8F929F921B
:10332000AF92BF92CF92DF92EF92FF92CF936B0159
:103330007C0120E030E0A9010F94040287FDCCC09D
:103340006DEB77E386E095E3A70196010F94E6081D
:103350006B017C0120E030E0A9010F94040287FF9B
:1033600004C0F7FAF094F7F8F09442E050E0C70197
:10337000B6010E9480AA6B017C0160E280E4C8165D
:1033800082E4D8068FE0E806F1048CF0C701B601AC
:1033900020E432E44FE050E00F949D08CA01B901E7
:1033A0002AE030E040E050E00F949D08605D6093BB
:1033B000800460E280EAC81686E8D80681E0E80664
:1033C000F1048CF0C701B60120EA36E841E050E094
:1033D0000F949D08CA01B9012AE030E040E050E0B6
:1033E0000F949D08605D6093810460E280E1C816DF
:1033F00087E2D806E104F1048CF0C701B60120E1B0
:1034000037E240E050E00F949D08CA01B9012AE07C
:1034100030E040E050E00F949D08605D60938204CE
:1034200060E288EEC81683E0D806E104F1048CF06F
:10343000C701B60128EE33E040E050E00F949D084C
:10344000CA01B9012AE030E040E050E00F949D0845
:10345000605D6093830460E284E6C816D104E104F1
:10346000F1048CF0C701B60124E630E040E050E002
:103470000F949D08CA01B9012AE030E040E050E015
:103480000F949D08605D609384048EE280938504B0
:103490008AE0882E912CA12CB12CC701B601A50180
:1034A00094010F949D08C62FCA01B901A50194018A
:1034B0000F949D08605D60938604C05DC09387048F
:1034C00080E894E0CF91FF90EF90DF90CF90BF9095
:1034D000AF909F908F9008956DEB77E386E095EB2A
:1034E00033CF0F940A0220E030E048EC52E40F940E
:1034F000C2092FE632E143E85AE30F94E6080ECF03
:103500008F929F92AF92BF92CF92DF92EF92FF92F3
:10351000CF936B017C0120E030E0A9010F940402FD
:1035200087FD6AC06DEB77E386E095E3A70196011E
:103530000F94E60843E050E00E9480AA6B017C01F2
:10354000C114D104E104F10409F45BC0F7FE59C0D1
:10355000F094E094D094C094C11CD11CE11CF11CE7
:103560008DE280938204C701B60128EE33E040E08B
:1035700050E00F949D088AE0882E912CA12CB12C4C
:10358000CA01B901A50194010F949D08605D609383
:1035900083048EE280938404C701B60124E630E000
:1035A00040E050E00F949D08CA01B901A5019401C3
:1035B0000F949D08605D60938504C701B601A50165
:1035C00094010F949D08C62FCA01B901A501940169
:1035D0000F949D08605D60938604C05DC09387046E
:1035E00082E894E0CF91FF90EF90DF90CF90BF9072
:1035F000AF909F908F9008956DEB77E386E095EB09
:1036000095CF80E2AECF0F940A0220E030E04AE787
:1036100054E40F94C20927E137EB41ED58E30F94CE
:10362000E6086ECF0F940A0220E030E048EC52E446
:103630000F94C2092FE632E143E85AE30F94E608FB
:103640000C9491B9CB010C94FEA60C94DC900C94D4
:10365000DC900C948E900C948E900C948E900C9424
:103660008E9063E972E084E690E00E9479AF70E0AA
:1036700060E08AE090E00E9479AF6AEB72E084E655
:1036800090E00C9479AF0E94B3A2EBCF8111E9CF07
:1036900068E270E080E991E00C9479AF0E94008DBF
:1036A000F5CF0E9483C3F2CF2F923F924F925F9249
:1036B0006F927F928F929F92AF92BF92CF92DF9242
:1036C000EF92FF920F931F93CF93DF9300D000D020
:1036D000CDB7DEB76C015B01742E29013E2C6E2C38
:1036E0002EEF98EE892E97E1992E421304C02CEE0E
:1036F000822E27E1922E85E4282E872D072C000CA0
:10370000990BFC01E457FD4FFE83ED8316140CF07A
:103710007CC0AE014F5F5F4F6CEE79E7C5010E9440
:10372000C1AF7C0149815A816B817C814115510572
:103730006105710509F469C04B37510561057105D3
:1037400009F4DBC04E3751056105710509F4D5C098
:103750004A3251056105710509F072C077FE17C044
:10376000462D062C000C550B4F5F5F4FB401C60170
:103770000F94FE00C6010E94B3AF681AF6010190D3
:103780000020E9F79F012150310959012DC0560150
:10379000FFEFAF1ABF0AF60120826A94662009F48F
:1037A0006DC0650181E04B3751056105710509F474
:1037B00080E0870D8A3084F05601FFEFAF1ABF0A10
:1037C0006A946AE00F946908805DF6018083662040
:1037D00009F454C0892F65015601FFEFAF1ABF0AE3
:1037E000805DF60180836A9416140CF047C0462D64
:1037F000062C000C550B4F5F5F4FB701C5010F94AE
:10380000FE00C5010E94B3AF681A832D8619269663
:103810000FB6F894DEBF0FBECDBFDF91CF911F91E1
:103820000F91FF90EF90DF90CF90BF90AF909F905F
:103830008F907F906F905F904F903F902F90089562
:10384000443251056105710509F03EC001151105AD
:10385000C1F0462D062C000C550B4F5F5F4FB80191
:10386000C6010F94FE00C6010E94B3AF681AF601AC
:1038700001900020E9F7CF0101975C016501570134
:1038800045CF4114510449F4D601F501EE16FF0667
:1038900069F184918D933196F9CF462D062C000C59
:1038A000550B4F5F5F4FB201C6010F944D01C6012A
:1038B0000E94B3AF681AF60101900020E9F79F015A
:1038C000215031095901DACF4034510561057105A4
:1038D000D9F656013FEFA31AB30AED81FE8180812C
:1038E000F6018083F50110826A94C8CF97012A19E6
:1038F0003B095901AC0CBD1CF5CF77FE53CF30CF3F
:103900000F931F930E9478E30091190410911A04F9
:1039100020911B0430911C04061B170B280B390B3C
:1039200010161106120613068CF02091180420952B
:10393000209318046A547C4F8F4F9F4F6093190453
:1039400070931A0480931B0490931C0481E090915F
:103950001804911101C080E01F910F910895CF9339
:10396000DF93C091180CD091190C209729F1609128
:10397000140C7091150C8091160C9091170C0F94EB
:103980002A0A6E5F7F4F24976C177D07ACF4709303
:10399000EC046093EB040E9478E3605A75418F4F0A
:1039A0009F4F6093ED047093EE048093EF04909327
:1039B000F004DF91CF9108951092ED041092EE047F
:1039C0001092EF041092F004F4CFCF92DF92EF92B6
:1039D000FF920F931F93CF93DF9300D000D01F92DD
:1039E0001F92CDB7DEB78E010F5F1F4FD80130E0B9
:1039F00020E0FB01E20FF31FE491ED932F5F3F4FB7
:103A000028303105B1F7877098E0899FB001112403
:103A100060648BEF91E10E94F5E383E790E001970A
:103A2000F1F77801E8E0EE0EF11C8BE9C82ED12CFD
:103A3000F80161918F018BEF91E10E940CC6C601E4
:103A40000197F1F7E016F10699F728960FB6F8946A
:103A5000DEBF0FBECDBFDF91CF911F910F91FF90C1
:103A6000EF90DF90CF900895CF92DF92EF92FF9288
:103A70000F931F93CF93DF9300D000D0CDB7DEB765
:103A80008A0146E0469F9001479F300D1124BC01FA
:103A9000620F731F46E050E0CE0101960F94D800EC
:103AA000C980DA80EB80FC80F8014081518162811D
:103AB00073818FEF9FEFC416D506E606F70640F038
:103AC00081E090E04C155D056E057F0508F080E013
:103AD00026960FB6F894DEBF0FBECDBFDF91CF9113
:103AE0001F910F91FF90EF90DF90CF9008950F936B
:103AF0001F93CF93DF93CDB7DEB72E970FB6F89411
:103B0000DEBF0FBECDBF8B011E861D86FC0160810E
:103B10007181828193816F83788789879A872FEF5C
:103B20002B87603871058105910538F48BEF91E1A1
:103B30000E940CC681E090E02FC09E01235F3F4FA2
:103B4000AE01495F5F4F69EB70E083EC92E10E9448
:103B5000D5D697FD2CC08D859E8526E0289FB00187
:103B6000299F700D11246D537D4E46E050E0CE012B
:103B700001960F94D8006D818BEF91E10E940CC6E5
:103B800001301105B9F26E816623A1F28BEF91E14C
:103B90000E940CC682E090E02E960FB6F894DEBF2D
:103BA0000FBECDBFDF91CF911F910F9108959E0160
:103BB000235F3F4FAE01495F5F4F63E670E081E7EF
:103BC00090E10E94D5D697FD0BC08D859E8526E09D
:103BD000289FB001299F700D11246F587F4EC5CFCB
:103BE0006FE3A4CFEF92FF920F931F93CF93DF93D6
:103BF000CDB7DEB764970FB6F894DEBF0FBECDBF6A
:103C00007C01FB0160817181828193818E010F5F54
:103C10001F4F248141E00E9430FDF70101900020F8
:103C2000E9F79F01215031092E193F092E31310545
:103C300050F44FE150E0421B530BBC01C701820F0F
:103C4000931F0F944D01C70164960FB6F894DEBF21
:103C50000FBECDBFDF91CF911F910F91FF90EF90DD
:103C600008958091E5039091E603009731F04AE0D2
:103C700050E070E060E00C94D0FF60E070E0CB01B9
:103C800008958091E5039091E603009731F04AE0B2
:103C900050E070E060E00C94A3FE60E070E0CB01C7
:103CA0000895EFDF97FD0AC0ECDF6F3F71058105D6
:103CB000910509F02CF4E5DF862F089580E0089542
:103CC0008FEF0895CF93C62FBCDA882311F0CF91E0
:103CD000E8CF8C2FCF9108958091E5039091E60372
:103CE000892B39F0DEDF91E0811101C090E0892F4E
:103CF000089591E0FCCFCF93DF93C82FD62FA1DAA0
:103D0000882319F0DF91CF91E7CF8C2F4CDA811106
:103D100001C08D2FDF91CF910895B3DFCB010895BE
:103D2000CF93DF93EB018DDA882319F0DF91CF91E8
:103D3000F4CFCE01DF91CF9108950F931F93CF93CE
:103D40008091E5039091E603009709F1FC018F0152
:103D5000C1912C2F2F7DA1F0C53431F0C53621F053
:103D6000C83511F0C83799F7F801108270E060E0AB
:103D70000E944DFDF801C083CF911F910F910895CE
:103D800070E060E0CF911F910F910C944DFD60E0C9
:103D900070E0CB01F1CFCF92DF92EF92FF926A01F8
:103DA0007B014FDA882329F0FF90EF90DF90CF90CE
:103DB000C4CFC701B601FF90EF90DF90CF90089578
:103DC0004F925F926F927F92AF92BF92CF92DF92AB
:103DD000EF92FF920F931F93CF938CE8A82E82E06F
:103DE000B82E9DE8E92E94E0F92E04E61BE024E7C6
:103DF000C22E2BE0D22EC0E0F50181915F0121DAC5
:103E0000882309F476C099DF2B013C018C2FA4D9BB
:103E1000882309F464C0F8012081318142815381F3
:103E2000C301B2010F94E608F701608371838283B6
:103E30009383CF5FF4E0EF0EF11C0C5F1F4F84E023
:103E4000C80ED11CC330C1F685E4FBD9882309F420
:103E50005BC073DF6B017C0183E07ED9882371F046
:103E60002091700B3091710B4091720B5091730B3C
:103E7000C701B6010F94E6086B017C01C09299045A
:103E8000D0929A04E0929B04F0929C0440E050E0AF
:103E9000BA0186E480DF20E030E0A9010F940D0B29
:103EA00018167CF44ADF20E030E040E752E40F943B
:103EB000C2096093120270931302809314029093CC
:103EC0001502CF911F910F91FF90EF90DF90CF904F
:103ED000BF90AF907F906F905F904F900895F601E4
:103EE0002081318142815381C301B2010F94E508E1
:103EF0009BCFF80180819181A281B381F7018083FA
:103F00009183A283B38395CF8091700B9091710BB5
:103F1000A091720BB091730B8093990490939A04C3
:103F2000A0939B04B0939C04B1CF0F931F930E9466
:103F300078E30091E1031091E2032091E3033091D3
:103F4000E403061B170B280B390B1016110612067B
:103F500013060CF442C08B019C010C53164F2F4FDB
:103F60003F4F0093E1031093E2032093E303309368
:103F7000E4032091EA04211104C020911A0C2223A9
:103F800041F06093DD037093DE038093DF03909331
:103F9000E0030091DD031091DE032091DF033091F7
:103FA000E0030115110521053105A9F0AB01BC01A4
:103FB000401B510B620B730B81E040365A4E61057A
:103FC000710508F080E0682F619570E087E01F912F
:103FD0000F910C94C2E160E0F8CF1F910F9108950A
:103FE000E0917C04E63028F581E08E0F80937C041C
:103FF00040914C0650914D0660914E0670914F06CF
:10400000209146069091470680917E0439E0E39F17
:10401000F0011124EA5BFB4FA091F911B091FA1164
:10402000B183A083428353836483758326839783FC
:1040300080870895CF93DF93CDB7DEB78E8187FF5A
:1040400003C010925C0980E090915C09282F082E33
:10405000000C330B9217130609F08CF480935C0963
:104060009E01275F3F4F4F81588568E270E080EDE9
:1040700091E10F94CC0110925B0910925A09DF91E3
:10408000CF910895CF93DF93CDB7DEB7A1970FB649
:10409000F894DEBF0FBECDBF67FF03C010925C096E
:1040A00060E050915C09262F062E000C330B52174E
:1040B000130609F014F560935C0919821F8E4423DE
:1040C00029F14FE150E0BC01CE0101960F94FE00B2
:1040D00049E250E0BE016F5F7F4F80ED91E10F94A8
:1040E0004D0188E290E099A388A3CE0180960E94BA
:1040F00029D710925B0910925A09A1960FB6F8942D
:10410000DEBF0FBECDBFDF91CF9108954FE150E0EC
:10411000BC01CE0101960F944D01DACFCF92DF9210
:10412000EF92FF920E9478E36B017C0126B191E04F
:1041300026FB222720F9292786B1829581708927BD
:1041400030913E0490E020FB90F980FB91F9932799
:1041500090FF67C0B701A6014E5F5F4F6F4F7F4F63
:1041600040933A0450933B0460933C0470933D04A5
:1041700091FF70C0B701A6014E5F5F4F6F4F7F4F39
:104180004093350450933604609337047093380499
:1041900090913E0420FB90F980FB91F990933E04AE
:1041A00020913904822F8170269521702827880F4D
:1041B000282B809134042817C9F0422F481B550B37
:1041C000CA01059664E070E00F948A08815020933C
:1041D0003404823009F057C080913304880F88235B
:1041E00029F090914404890F809344048091400405
:1041F00090914104A0914204B09143048C199D090F
:10420000AE09BF09181619061A061B062CF0329BB8
:104210003DC080E080933F04FF90EF90DF90CF900F
:10422000089540913A0450913B0460913C04709190
:104230003D044C195D096E097F0914161506160612
:1042400017060CF495CF3091390420FB30F93093E8
:1042500039048ECF40913504509136046091370473
:10426000709138044C195D096E097F091416150602
:10427000160617060CF48CCF9091390480FB91F947
:104280009093390485CF80933304A9CF84E0C2CFC3
:10429000CF92DF92EF92FF92CF93C82F0E9478E3E4
:1042A0006B017C0124EA30E74DE75FE360910C028B
:1042B00070910D0280910E0290910F020F940402F2
:1042C00087FD18C08AEF90E0A0E0B0E08C0D9D1D46
:1042D000AE1DBF1D8093200490932104A09322045F
:1042E000B0932304C0930A02CF91FF90EF90DF9028
:1042F000CF90089580E090E0DC01E8CF8F3010F49B
:104300008F5F08958F50089563EC77E180E05DDB67
:104310006BEB77E181E059DB63EB77E182E055DB22
:104320006BEA77E186E051DB63EA77E187E04DDB1A
:104330006BE977E183E049DB63E977E184E045DB22
:104340006BE877E185E041CBCF93823061F4C4E044
:10435000C15058F088E0C89FB0011124675E784EC4
:104360008C2F33DBF5CFCF91CFCFCF9108950F9323
:104370001F93522F2091F9113091FA112817390704
:10438000A1F11092A5049093FA118093F9118B0179
:1043900030E020E000934C0610934D0620934E062B
:1043A00030934F064093460650934706845C9642EE
:1043B00021F410927E0410927C048BEF91E10E9414
:1043C000FDE381E02091F9113091FA11245C36422D
:1043D00009F080E0B9DF82E08093530281E08093AE
:1043E0005C0610927F0410927D041F910F91089536
:1043F00020E040E070E060E084EC96E2B8CFCF933C
:104400000E94B3A20E94008DC82F882319F080E07B
:104410000E94DD8B8C2F3AD9CF91EACF87EF98E1BC
:104420009093340680933306E3CFCF93DF93C0910C
:104430007C04CC23B1F0C150C0937C0489E0C89FB8
:10444000E0011124CA5BDB4F6A817B812F814E81A1
:10445000888199818CDF888580937E04DF91CF915C
:104460000895DF91CF91C4CFCF93DF93EC01B8DDF6
:10447000D0934306C093420620E040E070E060E045
:104480008EEA96E274DF81E080937E040E94FF90C2
:1044900010927E04DF91CF91C8CF88E098E1E4DFED
:1044A00081E080937E048EEA9EE20E945FD984E0E0
:1044B00098E19093340680933306089520E044E019
:1044C00064E18BEF91E10E9404E481E02091F91115
:1044D0003091FA11245C364209F080E035DF8BEF31
:1044E00091E10C94FDE3EADF8BEF91E10E94FDE3A3
:1044F0003E98469A3C98449A3A98429A0FDE109217
:1045000044040C944AD76FEF7FEFF1CAAF92BF9289
:10451000CF92DF92EF92FF920F931F93CF93DF938F
:1045200000D01F92CDB7DEB76C015B017A0110E0BD
:1045300000E00E151F05C8F4AE014F5F5F4FB501D7
:10454000C6010E94C1AF6C0189819A81AB81BC8197
:10455000892B8A2B8B2B49F0B701601B710BCE0185
:104560000196C5DA080F191FE4CFC8010F900F900C
:104570000F900F90DF91CF911F910F91FF90EF90CF
:10458000DF90CF90BF90AF9008958F929F92AF929F
:10459000BF92CF92DF92EF920F931F93CF93DF934F
:1045A000CDB7DEB7ADB6BEB6C02ED12CF601319672
:1045B000EE0FFF1FADB7BEB7AE1BBF0B0FB6F89423
:1045C000BEBF0FBEADBFEDB7FEB731964F01E02EB7
:1045D00089019A01462FBC01CF0166D8082FA60198
:1045E0006FEE79E7C40192DF802F0FB6F894BEBE5C
:1045F0000FBEADBEDF91CF911F910F91EF90DF9075
:10460000CF90BF90AF909F908F9008954FEF5FEF46
:104610006FEE79E77BCF4FEF5FEF6CEE79E776CF08
:104620000F931F93CF93DF9300D000D01F921F9260
:10463000CDB7DEB700915C0210915D0220915E0261
:1046400030915F020D831E832F83388700916002B3
:1046500010916102209162023091630209831A83F2
:104660002B833C8390910212691710F06FEF690F52
:10467000262F30E0409103122C0F3D1FF9014031ED
:1046800099F4943089F46181680F60688BEF91E14F
:1046900028960FB6F894DEBF0FBECDBFDF91CF9145
:1046A0001F910F910C94F5E36581EECFFC01A08181
:1046B000B1811C92A281B3818C918F5F8C93028017
:1046C000F381E02D608180E0ABCF4F925F926F92DB
:1046D0007F928F929F92AF92BF92CF92DF92EF9292
:1046E000FF920F931F93CF93DF9300D000D01F92C0
:1046F0001F92CDB7DEB76C017B015A014901FB0166
:104700006081FC0180818CDFA114B10409F49DC09B
:10471000DA82C982FC82EB82011121C0AE014B5FBB
:104720005F4FB401C5010E94C1AF5C018D819E81C4
:10473000AF81B885892B8A2B8B2B09F486C0CE01DB
:104740000596E1DEF60180818F5F8083843130F34E
:10475000CE010196ABDFE2CF10E075010DC075010F
:1047600010E00AC0E114F104B9F38FEFE81AF80A77
:1047700010E0E114F10489F3AE014B5F5F4FB40127
:10478000C5010E94C1AF5C014D805E806F8078845E
:104790004114510461047104E9F0F0E24F16510430
:1047A00061047104A9F0D301C2018D97A109B10977
:1047B0000297A105B10570F04BE244165104610463
:1047C000710441F05AE04516510461047104D9F5B1
:1047D000112341F2F6018081482F410F5527551FC3
:1047E000453151052CF0853018F0CE0101965EDF81
:1047F00081E0411451046104710409F480E0180F50
:10480000F6018081810F8083112369F01150AE0180
:104810004B5F5F4FB401C7010E94C1AF7C01CE0165
:10482000059671DEF1CF411451046104710469F001
:10483000FAE04F1651046104710409F08DCFCE01E6
:10484000019634DF8ACF1F5F94CF28960FB6F89475
:10485000DEBF0FBECDBFDF91CF911F910F91FF90B3
:10486000EF90DF90CF90BF90AF909F908F907F9010
:104870006F905F904F9008952F923F924F925F926A
:104880006F927F928F929F92AF92BF92CF92DF9260
:10489000EF92FF920F931F93CF93DF9300D000D03E
:1048A000CDB7DEB74C013B015A012E83232E2801E0
:1048B00081E080937E0440914C0650914D066091BA
:1048C0004E0670914F06411551056105710571F055
:1048D000141615060CF080E080937D0410924C06AF
:1048E00010924D0610924E0610924F0610917D04C4
:1048F0003090360610923606311005C08091530272
:10490000882309F4AFC0C2010E94A5AF082F80E040
:10491000C114D10419F0C6010E94A5AF1D821982ED
:10492000E114F104B1F4402F50E0282F30E0CA0127
:10493000820F931F45976CF484E190E0841B950BE4
:10494000821B930B97FD0196959587958D8381E04A
:10495000898301E02CEE39E7A201BE016F5F7F4F32
:10496000CE010596B2DEE114F10489F08D81882331
:1049700021F01D8289818F5F898300E02FEE39E766
:10498000A701BE016F5F7F4FCE0105969EDEC11469
:10499000D10451F000E02CEE39E7A601BE016F5FB3
:1049A0007F4FCE01059691DE63E080E039DE8BE536
:1049B00090E0A0E0B0E0112321F080E290E0A0E0E0
:1049C000B0E089839A83AB83BC83CE0101969BDDE3
:1049D000C30121DE8DE590E0A0E0B0E0112321F0DD
:1049E00080E290E0A0E0B0E089839A83AB83BC834F
:1049F000CE01019688DDC4010E94A5AF63E092E17B
:104A0000981B892F0DDE80E290E0A0E0B0E011233A
:104A100021F08BE590E0A0E0B0E089839A83AB833E
:104A2000BC83CE0101966FDDC401F5DD80E290E02C
:104A3000A0E0B0E0112321F08DE590E0A0E0B0E02F
:104A400089839A83AB83BC83CE0101965CDD3320DE
:104A500049F0111102C0AE80B22CA114B104D9F0FA
:104A6000F501199526960FB6F894DEBF0FBECDBF9F
:104A7000DF91CF911F910F91FF90EF90DF90CF903A
:104A8000BF90AF909F908F907F906F905F904F906E
:104A90003F902F900895C9DCE5CFCF92DF92EF923F
:104AA000FF920F931F9389EEC82E88E1D82EF12C28
:104AB000E12C0CEF18E130E020E04FEF51E26BEE1B
:104AC00078E182EF98E1D8DE1F910F91FF90EF908F
:104AD000DF90CF900895AF92BF92CF92DF92EF9286
:104AE000FF920F931F93CF93DF93CDB7DEB7ADB691
:104AF000BEB686E298E10E94A5AF90E001962DB780
:104B00003EB7281B390B0FB6F8943EBF0FBE2DBF22
:104B10008DB79EB701967C0166E278E10F94F700AD
:104B2000E0914206E15010E000E0E43038F4F0E0BB
:104B3000EE0FFF1FE75EFC4F0081118187E1C82E59
:104B400088E1D82E28EF31E24FEF51E269E178E1B8
:104B500080E298E191DE0FB6F894BEBE0FBEADBE06
:104B6000DF91CF911F910F91FF90EF90DF90CF9049
:104B7000BF90AF9008954F925F926F927F928F9205
:104B80009F92AF92BF92CF92DF92EF92FF920F93DC
:104B90001F93CF93DF93CDB7DEB73B01142F69018D
:104BA0008DB69EB6682F80E03BDD212F2170422E0E
:104BB0001270512EF12CC114D10421F0C6010E94B3
:104BC000B3AFF82EC3010E94A5AF90E09C012D5F0A
:104BD0003F4F4DB75EB7421B530B0FB6F8945EBF05
:104BE0000FBE4DBFEDB7FEB731965F012091640255
:104BF00030916502EDB7FEB732832183339611926F
:104C00000197E8F76114710429F194E1E92EEF1896
:104C100000913D0610913E0620913B0630913C06E6
:104C200040913F06B301C5010E94541B682EFF202E
:104C3000C9F041106EC0F601808101E08A3361F055
:104C400000E0C6016C010196F6012081203269F472
:104C5000FA94F8CF612CEBCFFFEFCF1ADF0AFA946A
:104C60006394EFCF00E0411003C0552009F458C011
:104C700084E1782E76187F18E72C442009F451C07F
:104C8000872D77FE02C081E0870D182F1595E12E44
:104C90001E140CF440C0812F17FD80E014E1181B96
:104CA000E72CE81A662069F0412F012E000C550B05
:104CB0004F195109F7FC53956FEE79E7C50126DCD2
:104CC000181BFF20F9F011169CF5552091F04110AA
:104CD00010C0002341F04FEF5FEF6CEE79E78FE7F4
:104CE00097E114DC181B0E2D1016ECF0E7FCE12CFC
:104CF0001E19412F012E000C550B6FEE79E7C601EE
:104D000005DC181B1116A4F48BE797E184DC115025
:104D1000F9CF00E0ADCF81E897E17DDCEA94B8CF30
:104D2000E12C14E1BFCF8DE797E175DC0150DCCFBA
:104D30000FB6F8949EBE0FBE8DBEDF91CF911F912E
:104D40000F91FF90EF90DF90CF90BF90AF909F902A
:104D50008F907F906F905F904F9008958091530255
:104D6000882349F0609142067091430630E020E0CC
:104D700041E081E000CF0895CF93DF93EA0150DC5A
:104D8000CE01DF91CF91BFCB8F929F92AF92BF9216
:104D9000CF92DF92EF92FF920F931F93CF93DF9307
:104DA00000D01F92CDB7DEB7E0915A09F0915B09B0
:104DB000309721F0199581110E944AD780913606CB
:104DC000109236068823C9F020E040E070E060E0F1
:104DD0008FE795EBCCDA72DB0F900F900F900F906E
:104DE000DF91CF911F910F91FF90EF90DF90CF90C7
:104DF000BF90AF909F908F900895209110023091B6
:104E0000110240914C0650914D06CA01820F931F2A
:104E10002436310509F011C147305105E4F00697F9
:104E2000883EE3E09E0714F087EE93E08A30910518
:104E300014F48AE090E02817390789F09093110262
:104E40008093100210924C0610924D0610924E065E
:104E500010924F0604C006964A3F5F4F0CF30E9423
:104E6000801C182F60E080E0DBDB20E030E040E0D9
:104E70005FE36091400C7091410C8091420C9091E5
:104E8000430C0F94E6080F942A0A4B01E090440C5F
:104E9000F090450C82E090E0A0E0B0E089839A8336
:104EA000AB83BC83CE0101962EDB97FCD6C0C40138
:104EB0000E9452AAABDB82EE97E1ADDBC7010E94F4
:104EC000D3A6A4DB81E090E0A0E0B0E089839A83E0
:104ED000AB83BC83CE01019616DB80EE97E19BDBB2
:104EE000FAE0EF16F1041CF48EED97E194DB60E03C
:104EF0008AE096DB112329F08091B8040FE5811137
:104F000001C000E020E030E040E05FE36091140C7D
:104F10007091150C8091160C9091170C0F94E60867
:104F20000F942A0A4B01E090180CF090190C802F76
:104F3000000F990BAA0BBB0B89839A83AB83BC83AD
:104F4000CE010196E0DA97FC8CC0C4010E9452AAFF
:104F50005DDB82EE97E15FDBC7010E94D3A656DBE3
:104F600081E090E0A0E0B0E089839A83AB83BC83CA
:104F7000CE010196C8DA80EE97E14DDB4AE0E416F7
:104F8000F1041CF48EED97E146DB61E080E048DB44
:104F90002091740B3091750B4091760B5091770BEB
:104FA0006091640B7091650B8091660B9091670B1B
:104FB0000F94E6086B017C012091780B3091790BFE
:104FC00040917A0B50917B0B6091680B7091690B4B
:104FD00080916A0B90916B0B0F94E6084B015C017A
:104FE00020E030E0A901C701B6010F94040220E0DF
:104FF00030E040E05FEB87FD04C020E030E040E0BF
:105000005FE3C701B6010F94E6080F942A0ACB01AB
:105010000E9454A6D82E092F88E590E0A0E0B0E0C9
:1050200089839A83AB83BC83CE0101966CDA11230A
:10503000E1F08D2D902FEADA3BC051E024363105A6
:105040000CF450E041E0853691050CF440E0541733
:1050500009F4E6CE84E690E0F1CE84EE97E1DBDA67
:105060002ACF84EE97E1D7DA74CF81E00E946C9B5F
:105070008823B9F0ED2CF02EF70181917F01882370
:10508000B9F08F320CF08FE3082E000C990BAA0BAD
:10509000BB0B89839A83AB83BC83CE01019633DA41
:1050A000EBCF80916A0680FDC4CF89ED97E1B3DA3A
:1050B00087ED97E1B0DA20E030E0A901C501B40145
:1050C0000F94040220E030E040E05FEB87FD04C075
:1050D00020E030E040E05FE3C501B4010F94E60852
:1050E0000F942A0ACB010E9454A6D82E092F89E5D5
:1050F00090E0A0E0B0E089839A83AB83BC83CE01CB
:10510000019601DA112321F08D2D902F7FDA23C033
:1051100082E00E946C9B8823B9F0ED2CF02EF70101
:1051200081917F018823B9F08F320CF08FE3082E34
:10513000000C990BAA0BBB0B89839A83AB83BC83AE
:10514000CE010196E0D9EBCF80916A0681FDDCCFDC
:1051500089ED97E160DA61E08CE062DA20917C0B06
:1051600030917D0B40917E0B50917F0B60916C0BC9
:1051700070916D0B80916E0B90916F0B0F94E60800
:1051800042E050E00E9480AA6B017C0180E2F7FEC1
:1051900009C0F094E094D094C094C11CD11CE11CCF
:1051A000F11C8DE28093810460E2F0E1CF16F7E21A
:1051B000DF06E104F1048CF0C701B60120E137E21B
:1051C00040E050E00F949D08CA01B9012AE030E0A8
:1051D00040E050E00F949D08605D6093820460E2BF
:1051E00048EEC41643E0D406E104F1048CF0C70194
:1051F000B60128EE33E040E050E00F949D08CA016C
:10520000B9012AE030E040E050E00F949D08605D75
:1052100060938304C701B60124E630E040E050E02B
:105220000F949D089AE0892E912CA12CB12CCA01D3
:10523000B901A50194010F949D08605D60938404F9
:10524000C701B601A50194010F949D08062FCA015C
:10525000B901A50194010F949D08002309F47CC0B5
:105260008EE280938504605D60938604005D009308
:1052700087048AE590E0A0E0B0E089839A83AB835D
:10528000BC83CE0101963FD9112309F477C081E890
:1052900094E0BCD986E090E0A0E0B0E089839A83F6
:1052A000AB83BC83AE014F5F5F4F62E080E064DDA3
:1052B00080911002909111020E94FEA6A7D98DEC58
:1052C00097E1A9D986E080931F0482E080930902C8
:1052D0008091660290916702A0916802B091690284
:1052E00089839A83AB83BC830E94801C90911E04A7
:1052F0008917D9F00E94801C80931E0480911D04A0
:105300008F5F823008F05FC080931D04E0911D0420
:10531000F0E0EE0FFF1F81E090E08C0F9D1FE80F83
:10532000F91F0190F081E02D199563E080E078D9B4
:1053300080ED91E10E94B3AF182F44E150E06FEE91
:1053400079E780ED91E1E2D8143108F045CD8BEC9E
:1053500097E161D91F5FF8CF662351F08EE2809309
:105360008504605D6093860480E28093870481CF2A
:1053700080E28093860480938504F6CF84E00E94C7
:105380006C9B8823C1F001E814E0F80181918F0142
:10539000882309F47FCF8F320CF08FE3082E000CA6
:1053A000990BAA0BBB0B89839A83AB83BC83CE0179
:1053B0000196A9D8EACF80916A0682FD68CF8FEC6A
:1053C00097E129D967CF10921D04A0CF8F929F92A9
:1053D000AF92BF92CF92DF92EF92FF920F931F9303
:1053E000CF93DF9300D01F92CDB7DEB76C017B0166
:1053F00080903D0690903E06A0903B06B0903C0603
:1054000010913F0661E080E00BD903E19401A50112
:10541000612FC601BAD8182FE114F104F1F089E820
:1054200097E1F9D8C7010E94B3AF8F5F92E1911B5A
:1054300061E0981708F462E000E210E020E030E05C
:1054400009831A832B833C83AE014F5F5F4F94E146
:10545000981B892F91DCC701D9D80F900F900F901E
:105460000F90DF91CF911F910F91FF90EF90DF9000
:10547000CF90BF90AF909F908F9008950F931F9300
:10548000CF93DF93FC01EB0180914C0690914D0688
:10549000A0914E06B0914F06B7FD75C040915006E1
:1054A0005091510660915206709153064817590762
:1054B0006A077B0714F4DB01CA0180934C069093C2
:1054C0004D06A0934E06B0934F062091530222231F
:1054D000B9F040915406509155066091560670916E
:1054E00057068C019D01040F151F261F371FC90188
:1054F000B8011995BC0180915A0690915B0666DF50
:1055000080913606811109C080914906882309F4EB
:105510003EC0809153028823D1F18091580690912A
:1055200059060097B1F040914C0650914D0660919C
:105530004E0670914F060091540610915506209129
:10554000560630915706400F511F621F731FFE0110
:105550001995E0914A06F0914B06309741F0809101
:105560004906811103C080913606811119958091F9
:10557000360610923606882351F0DF91CF911F91A5
:105580000F910C94152280E090E0DC0196CFDF9122
:10559000CF911F910F9108956CEB77E181E79AE12C
:1055A0006DCF66ED77E184E499E168CF6CEE77E149
:1055B00082E899E163CF60E078E18BE899E15ECF22
:1055C00062EA77E182E19BE159CF6EE078E182E225
:1055D0009BE154CF62E178E183E09BE14FCF9F9262
:1055E000AF92BF92CF92DF92EF92FF920F931F93F1
:1055F000CF93DF9300D01F92CDB7DEB7982E162F32
:105600005A017901C02E2115310509F476C0C9016E
:105610000023B1F10E94A5AFD82E8EE390E0A0E068
:10562000B0E0911004C080E290E0A0E0B0E0898397
:105630009A83AB83BC83AE014F5F5F4F612F80E0E5
:105640009BDB12E11D1920913D0630913E064091F1
:105650003B0650913C06012F60913F06C5010E9418
:10566000C522DD20C9F0181B87E897E10E940B23B3
:10567000112349F085E897E10E940B231150F8CFE0
:105680000E94B3AFC9CFCC20B9F04FEF5FEF6CEE03
:1056900079E7C7010E9486220F900F900F900F901C
:1056A000DF91CF911F910F91FF90EF90DF90CF90FE
:1056B000BF90AF909F900895C7010E940623ECCF42
:1056C0008EE390E0A0E0B0E089839A83AB83BC8353
:1056D000AE014F5F5F4F612F80E04EDB20913D06B2
:1056E00030913E0640913B0650913C0602E16091AC
:1056F0003F06C5010E94C522CFCF8111E1CFD12C39
:1057000092CFCF92DF92FF920F931F93CF93DF93AD
:1057100000D01F92CDB7DEB76A01F02E811101C013
:1057200020E2822F220F990BAA0BBB0B89839A834D
:10573000AB83BC83AE014F5F5F4F80E01DDB2091E8
:105740003D0630913E0640913B0650913C0602E1F9
:1057500060913F06C6010E94C52212E1181B112369
:1057600031F083E897E10E940B231150F8CF0F2D01
:10577000FF0C110B220B330B09831A832B833C8301
:10578000CE0101960E9483220F900F900F900F90F0
:10579000DF91CF911F910F91FF90DF90CF900895EF
:1057A0007F928F929F92AF92BF92CF92DF92EF92B1
:1057B000FF920F931F93CF93DF93CDB7DEB7609720
:1057C0000FB6F894DEBF0FBECDBF80E1EAE6F2E08F
:1057D000DE01119601900D928A95E1F70E94A6DFF5
:1057E00070904606C12C88248394D72CDC0CA1F43D
:1057F00080914806882309F4C6C08091530288230B
:1058000059F081E090914806911180E003E023E097
:1058100047ED58E16C2D75DFAA24A394B12CDA1062
:105820002EC08FEF8A0D80933F0610923E06109295
:105830003D0610923C0610923B06809148068D155D
:1058400009F4C3C0809153028823C9F011E080910C
:1058500048068D1110E0F501EE0FFF1FEE0FFF1F40
:10586000EE55F94F60A171A182A193A10E944F1939
:1058700000E09C0147E858E16C2D812FB0DE9A2CA6
:1058800081E08A0D9FEFA91AB90A94E0A916B10424
:1058900031F6D8122AC083E080933F0610923E066C
:1058A00010923D0610923C0610923B0680914806ED
:1058B0008D1509F4B4C0809153028823B1F011E032
:1058C000809148068D1110E06091D2067091D30648
:1058D0008091D4069091D5060E944F1900E09C015A
:1058E00047E858E16C2D812F7ADE82E0890D8D1119
:1058F0001FC0809148068D1509F4AFC080915302F6
:105900008823B1F011E0809148068D1110E060917C
:10591000E2067091E3068091E4069091E5060E940C
:105920004F1900E09C014AE758E16C2D812F57DEAA
:1059300083E0890D8D111FC0809148068D1509F4F3
:10594000A9C0809153028823B1F011E080914806EC
:105950008D1110E06091E6067091E7068091E806EF
:105960009091E9060E944F1900E09C0149E658E138
:105970006C2D812F34DEC39484E0C81236CF890D9C
:10598000809347060EC08091360610923606882313
:1059900009F433CF0E94152280915C06882309F414
:1059A0002CCF60960FB6F894DEBF0FBECDBFDF914F
:1059B000CF911F910F91FF90EF90DF90CF90BF900C
:1059C000AF909F908F907F900895809136061092AF
:1059D0003606882309F436CFB501660F771F660FA8
:1059E000771FFB01349781E090E08C0F9D1FE80F3B
:1059F000F91FE080F180028113816E53794F20E01E
:105A000030E040E85FE387E898E10E94F4DF8092AD
:105A10007F0480915C06882309F414CFC2CF809163
:105A2000360610923606882309F445CFE12C1CE394
:105A3000F12E0CE116E420E030E040E85FE362ED97
:105A400076E087E898E10E94F4DF80927F048091FD
:105A50005C06882309F42FCFA4CF809136061092DC
:105A60003606882309F44ACFE12C1CE3F12E0CE121
:105A700016E420E030E0A90162EE76E08AE798E1E2
:105A80000E94F4DF80927F0480915C06882309F4F1
:105A900035CF87CF8091360610923606882309F4D9
:105AA00050CFE12C1CE3F12E0CE116E420E030E0B5
:105AB000A90166EE76E089E698E10E94F4DF809223
:105AC0007F0480915C06882309F43BCF6ACF2F9234
:105AD0003F924F925F926F927F928F929F92AF927E
